{
    "_format": "hh-sol-artifact-1",
    "contractName": "ProofOfTake",
    "sourceName": "contracts/ProofOfTake.sol",
    "abi": [
        {
            "anonymous": false,
            "inputs": [
                {
                    "indexed": true,
                    "internalType": "address",
                    "name": "sender",
                    "type": "address"
                },
                {
                    "indexed": false,
                    "internalType": "string",
                    "name": "take",
                    "type": "string"
                },
                {
                    "indexed": true,
                    "internalType": "uint256",
                    "name": "timestamp",
                    "type": "uint256"
                }
            ],
            "name": "CreateTake",
            "type": "event"
        },
        {
            "inputs": [
                {
                    "internalType": "string",
                    "name": "_take",
                    "type": "string"
                }
            ],
            "name": "create",
            "outputs": [],
            "stateMutability": "nonpayable",
            "type": "function"
        },
        {
            "inputs": [],
            "name": "getLastTakeIndex",
            "outputs": [
                {
                    "internalType": "uint256",
                    "name": "",
                    "type": "uint256"
                }
            ],
            "stateMutability": "view",
            "type": "function"
        },
        {
            "inputs": [
                {
                    "internalType": "address",
                    "name": "_addr",
                    "type": "address"
                }
            ],
            "name": "getLastTakeIndexByAddr",
            "outputs": [
                {
                    "internalType": "uint256",
                    "name": "",
                    "type": "uint256"
                }
            ],
            "stateMutability": "view",
            "type": "function"
        },
        {
            "inputs": [
                {
                    "internalType": "uint256",
                    "name": "_idx",
                    "type": "uint256"
                }
            ],
            "name": "getTake",
            "outputs": [
                {
                    "internalType": "string",
                    "name": "",
                    "type": "string"
                },
                {
                    "internalType": "uint256",
                    "name": "",
                    "type": "uint256"
                },
                {
                    "internalType": "address",
                    "name": "",
                    "type": "address"
                }
            ],
            "stateMutability": "view",
            "type": "function"
        },
        {
            "inputs": [
                {
                    "internalType": "address",
                    "name": "_addr",
                    "type": "address"
                },
                {
                    "internalType": "uint256",
                    "name": "_idx",
                    "type": "uint256"
                }
            ],
            "name": "getTakeByAddr",
            "outputs": [
                {
                    "internalType": "string",
                    "name": "",
                    "type": "string"
                },
                {
                    "internalType": "uint256",
                    "name": "",
                    "type": "uint256"
                },
                {
                    "internalType": "address",
                    "name": "",
                    "type": "address"
                }
            ],
            "stateMutability": "view",
            "type": "function"
        }
    ],
    "bytecode": "0x608060405234801561001057600080fd5b50610d2e806100206000396000f3fe608060405234801561001057600080fd5b50600436106100575760003560e01c80633391abc31461005c578063660029581461008e5780637b17c60f146100be578063b6a46b3b146100dc578063f035f876146100f8575b600080fd5b610076600480360381019061007191906109db565b61012a565b60405161008593929190610aac565b60405180910390f35b6100a860048036038101906100a39190610931565b6102e3565b6040516100b59190610aea565b60405180910390f35b6100c6610337565b6040516100d39190610aea565b60405180910390f35b6100f660048036038101906100f19190610996565b610389565b005b610112600480360381019061010d919061095a565b610661565b60405161012193929190610aac565b60405180910390f35b6060600080600260003373ffffffffffffffffffffffffffffffffffffffff1673ffffffffffffffffffffffffffffffffffffffff1681526020019081526020016000206000858152602001908152602001600020600001600260003373ffffffffffffffffffffffffffffffffffffffff1673ffffffffffffffffffffffffffffffffffffffff168152602001908152602001600020600086815260200190815260200160002060010154600260003373ffffffffffffffffffffffffffffffffffffffff1673ffffffffffffffffffffffffffffffffffffffff168152602001908152602001600020600087815260200190815260200160002060020160009054906101000a900473ffffffffffffffffffffffffffffffffffffffff1682805461025690610c29565b80601f016020809104026020016040519081016040528092919081815260200182805461028290610c29565b80156102cf5780601f106102a4576101008083540402835291602001916102cf565b820191906000526020600020905b8154815290600101906020018083116102b257829003601f168201915b505050505092509250925092509193909250565b600060018060008473ffffffffffffffffffffffffffffffffffffffff1673ffffffffffffffffffffffffffffffffffffffff168152602001908152602001600020546103309190610b77565b9050919050565b600060018060003373ffffffffffffffffffffffffffffffffffffffff1673ffffffffffffffffffffffffffffffffffffffff168152602001908152602001600020546103849190610b77565b905090565b600082828080601f016020809104026020016040519081016040528093929190818152602001838380828437600081840152601f19601f8201169050808301925050505050505090506000600160003373ffffffffffffffffffffffffffffffffffffffff1673ffffffffffffffffffffffffffffffffffffffff16815260200190815260200160002054905060405180606001604052808381526020014281526020013373ffffffffffffffffffffffffffffffffffffffff16815250600260003373ffffffffffffffffffffffffffffffffffffffff1673ffffffffffffffffffffffffffffffffffffffff168152602001908152602001600020600083815260200190815260200160002060008201518160000190805190602001906104b392919061081a565b506020820151816001015560408201518160020160006101000a81548173ffffffffffffffffffffffffffffffffffffffff021916908373ffffffffffffffffffffffffffffffffffffffff1602179055509050506000600160003373ffffffffffffffffffffffffffffffffffffffff1673ffffffffffffffffffffffffffffffffffffffff1681526020019081526020016000205414156105b4576000339080600181540180825580915050600190039060005260206000200160009091909190916101000a81548173ffffffffffffffffffffffffffffffffffffffff021916908373ffffffffffffffffffffffffffffffffffffffff1602179055505b60018060003373ffffffffffffffffffffffffffffffffffffffff1673ffffffffffffffffffffffffffffffffffffffff16815260200190815260200160002060008282546106039190610b21565b92505081905550423373ffffffffffffffffffffffffffffffffffffffff167fe43d21b6fb14bf19449d6246850d6a65ab707e8d400378ec16ac62d1cf82e3f68686604051610653929190610a88565b60405180910390a350505050565b6060600080600260008673ffffffffffffffffffffffffffffffffffffffff1673ffffffffffffffffffffffffffffffffffffffff1681526020019081526020016000206000858152602001908152602001600020600001600260008773ffffffffffffffffffffffffffffffffffffffff1673ffffffffffffffffffffffffffffffffffffffff168152602001908152602001600020600086815260200190815260200160002060010154600260008873ffffffffffffffffffffffffffffffffffffffff1673ffffffffffffffffffffffffffffffffffffffff168152602001908152602001600020600087815260200190815260200160002060020160009054906101000a900473ffffffffffffffffffffffffffffffffffffffff1682805461078d90610c29565b80601f01602080910402602001604051908101604052809291908181526020018280546107b990610c29565b80156108065780601f106107db57610100808354040283529160200191610806565b820191906000526020600020905b8154815290600101906020018083116107e957829003601f168201915b505050505092509250925092509250925092565b82805461082690610c29565b90600052602060002090601f016020900481019282610848576000855561088f565b82601f1061086157805160ff191683800117855561088f565b8280016001018555821561088f579182015b8281111561088e578251825591602001919060010190610873565b5b50905061089c91906108a0565b5090565b5b808211156108b95760008160009055506001016108a1565b5090565b6000813590506108cc81610cca565b92915050565b60008083601f8401126108e457600080fd5b8235905067ffffffffffffffff8111156108fd57600080fd5b60208301915083600182028301111561091557600080fd5b9250929050565b60008135905061092b81610ce1565b92915050565b60006020828403121561094357600080fd5b6000610951848285016108bd565b91505092915050565b6000806040838503121561096d57600080fd5b600061097b858286016108bd565b925050602061098c8582860161091c565b9150509250929050565b600080602083850312156109a957600080fd5b600083013567ffffffffffffffff8111156109c357600080fd5b6109cf858286016108d2565b92509250509250929050565b6000602082840312156109ed57600080fd5b60006109fb8482850161091c565b91505092915050565b610a0d81610bab565b82525050565b6000610a1f8385610b10565b9350610a2c838584610be7565b610a3583610cb9565b840190509392505050565b6000610a4b82610b05565b610a558185610b10565b9350610a65818560208601610bf6565b610a6e81610cb9565b840191505092915050565b610a8281610bdd565b82525050565b60006020820190508181036000830152610aa3818486610a13565b90509392505050565b60006060820190508181036000830152610ac68186610a40565b9050610ad56020830185610a79565b610ae26040830184610a04565b949350505050565b6000602082019050610aff6000830184610a79565b92915050565b600081519050919050565b600082825260208201905092915050565b6000610b2c82610bdd565b9150610b3783610bdd565b9250827fffffffffffffffffffffffffffffffffffffffffffffffffffffffffffffffff03821115610b6c57610b6b610c5b565b5b828201905092915050565b6000610b8282610bdd565b9150610b8d83610bdd565b925082821015610ba057610b9f610c5b565b5b828203905092915050565b6000610bb682610bbd565b9050919050565b600073ffffffffffffffffffffffffffffffffffffffff82169050919050565b6000819050919050565b82818337600083830152505050565b60005b83811015610c14578082015181840152602081019050610bf9565b83811115610c23576000848401525b50505050565b60006002820490506001821680610c4157607f821691505b60208210811415610c5557610c54610c8a565b5b50919050565b7f4e487b7100000000000000000000000000000000000000000000000000000000600052601160045260246000fd5b7f4e487b7100000000000000000000000000000000000000000000000000000000600052602260045260246000fd5b6000601f19601f8301169050919050565b610cd381610bab565b8114610cde57600080fd5b50565b610cea81610bdd565b8114610cf557600080fd5b5056fea264697066735822122070e4447104b5964e196517c2588b70d0cde91e0b8458a4e9459cb2a07d94855364736f6c63430008040033",
    "linkReferences": {},
    "deployedLinkReferences": {}
}