{
    "_format": "hh-sol-artifact-1",
    "contractName": "ProofOfTake",
    "sourceName": "contracts/ProofOfTake.sol",
    "abi": [
        {
            "inputs": [],
            "stateMutability": "payable",
            "type": "constructor"
        },
        {
            "anonymous": false,
            "inputs": [
                {
                    "indexed": true,
                    "internalType": "address",
                    "name": "sender",
                    "type": "address"
                },
                {
                    "indexed": false,
                    "internalType": "string",
                    "name": "take",
                    "type": "string"
                },
                {
                    "indexed": true,
                    "internalType": "uint256",
                    "name": "timestamp",
                    "type": "uint256"
                }
            ],
            "name": "CreateTake",
            "type": "event"
        },
        {
            "anonymous": false,
            "inputs": [
                {
                    "indexed": true,
                    "internalType": "address",
                    "name": "winner",
                    "type": "address"
                },
                {
                    "indexed": true,
                    "internalType": "uint256",
                    "name": "timestamp",
                    "type": "uint256"
                },
                {
                    "indexed": false,
                    "internalType": "uint256",
                    "name": "amount",
                    "type": "uint256"
                }
            ],
            "name": "WinPrize",
            "type": "event"
        },
        {
            "inputs": [
                {
                    "internalType": "string",
                    "name": "_take",
                    "type": "string"
                }
            ],
            "name": "create",
            "outputs": [],
            "stateMutability": "nonpayable",
            "type": "function"
        },
        {
            "inputs": [],
            "name": "getLastTakeIndex",
            "outputs": [
                {
                    "internalType": "uint256",
                    "name": "",
                    "type": "uint256"
                }
            ],
            "stateMutability": "view",
            "type": "function"
        },
        {
            "inputs": [
                {
                    "internalType": "address",
                    "name": "_addr",
                    "type": "address"
                }
            ],
            "name": "getLastTakeIndexByAddr",
            "outputs": [
                {
                    "internalType": "uint256",
                    "name": "",
                    "type": "uint256"
                }
            ],
            "stateMutability": "view",
            "type": "function"
        },
        {
            "inputs": [
                {
                    "internalType": "uint256",
                    "name": "_idx",
                    "type": "uint256"
                }
            ],
            "name": "getTake",
            "outputs": [
                {
                    "internalType": "string",
                    "name": "",
                    "type": "string"
                },
                {
                    "internalType": "uint256",
                    "name": "",
                    "type": "uint256"
                },
                {
                    "internalType": "address",
                    "name": "",
                    "type": "address"
                }
            ],
            "stateMutability": "view",
            "type": "function"
        },
        {
            "inputs": [
                {
                    "internalType": "address",
                    "name": "_addr",
                    "type": "address"
                },
                {
                    "internalType": "uint256",
                    "name": "_idx",
                    "type": "uint256"
                }
            ],
            "name": "getTakeByAddr",
            "outputs": [
                {
                    "internalType": "string",
                    "name": "",
                    "type": "string"
                },
                {
                    "internalType": "uint256",
                    "name": "",
                    "type": "uint256"
                },
                {
                    "internalType": "address",
                    "name": "",
                    "type": "address"
                }
            ],
            "stateMutability": "view",
            "type": "function"
        },
        {
            "inputs": [],
            "name": "getTotalTakes",
            "outputs": [
                {
                    "internalType": "uint256",
                    "name": "",
                    "type": "uint256"
                }
            ],
            "stateMutability": "view",
            "type": "function"
        },
        {
            "inputs": [
                {
                    "internalType": "address",
                    "name": "",
                    "type": "address"
                }
            ],
            "name": "lastTake",
            "outputs": [
                {
                    "internalType": "uint256",
                    "name": "",
                    "type": "uint256"
                }
            ],
            "stateMutability": "view",
            "type": "function"
        }
    ],
    "bytecode": "0x6080604052610f7f806100136000396000f3fe608060405234801561001057600080fd5b506004361061007d5760003560e01c80636b00f5451161005b5780636b00f545146101025780637b17c60f14610132578063b6a46b3b14610150578063f035f8761461016c5761007d565b80633391abc3146100825780634cf8a6d5146100b457806366002958146100d2575b600080fd5b61009c60048036038101906100979190610bc0565b61019e565b6040516100ab93929190610cb4565b60405180910390f35b6100bc610357565b6040516100c99190610d12565b60405180910390f35b6100ec60048036038101906100e79190610b16565b610361565b6040516100f99190610d12565b60405180910390f35b61011c60048036038101906101179190610b16565b6103b6565b6040516101299190610d12565b60405180910390f35b61013a6103ce565b6040516101479190610d12565b60405180910390f35b61016a60048036038101906101659190610b7b565b610471565b005b61018660048036038101906101819190610b3f565b610846565b60405161019593929190610cb4565b60405180910390f35b6060600080600360003373ffffffffffffffffffffffffffffffffffffffff1673ffffffffffffffffffffffffffffffffffffffff1681526020019081526020016000206000858152602001908152602001600020600001600360003373ffffffffffffffffffffffffffffffffffffffff1673ffffffffffffffffffffffffffffffffffffffff168152602001908152602001600020600086815260200190815260200160002060010154600360003373ffffffffffffffffffffffffffffffffffffffff1673ffffffffffffffffffffffffffffffffffffffff168152602001908152602001600020600087815260200190815260200160002060020160009054906101000a900473ffffffffffffffffffffffffffffffffffffffff168280546102ca90610e51565b80601f01602080910402602001604051908101604052809291908181526020018280546102f690610e51565b80156103435780601f1061031857610100808354040283529160200191610343565b820191906000526020600020905b81548152906001019060200180831161032657829003601f168201915b505050505092509250925092509193909250565b6000600154905090565b60006001600260008473ffffffffffffffffffffffffffffffffffffffff1673ffffffffffffffffffffffffffffffffffffffff168152602001908152602001600020546103af9190610d9f565b9050919050565b60046020528060005260406000206000915090505481565b600080600260003373ffffffffffffffffffffffffffffffffffffffff1673ffffffffffffffffffffffffffffffffffffffff1681526020019081526020016000205410610469576001600260003373ffffffffffffffffffffffffffffffffffffffff1673ffffffffffffffffffffffffffffffffffffffff168152602001908152602001600020546104629190610d9f565b905061046e565b600090505b90565b42601e600460003373ffffffffffffffffffffffffffffffffffffffff1673ffffffffffffffffffffffffffffffffffffffff168152602001908152602001600020546104be9190610d49565b106104fe576040517f08c379a00000000000000000000000000000000000000000000000000000000081526004016104f590610cf2565b60405180910390fd5b61011882829050111561051057600080fd5b42600460003373ffffffffffffffffffffffffffffffffffffffff1673ffffffffffffffffffffffffffffffffffffffff16815260200190815260200160002081905550600082828080601f016020809104026020016040519081016040528093929190818152602001838380828437600081840152601f19601f8201169050808301925050505050505090506000600260003373ffffffffffffffffffffffffffffffffffffffff1673ffffffffffffffffffffffffffffffffffffffff16815260200190815260200160002054905060405180606001604052808381526020014281526020013373ffffffffffffffffffffffffffffffffffffffff16815250600360003373ffffffffffffffffffffffffffffffffffffffff1673ffffffffffffffffffffffffffffffffffffffff1681526020019081526020016000206000838152602001908152602001600020600082015181600001908051906020019061067e9291906109ff565b506020820151816001015560408201518160020160006101000a81548173ffffffffffffffffffffffffffffffffffffffff021916908373ffffffffffffffffffffffffffffffffffffffff1602179055509050506000600260003373ffffffffffffffffffffffffffffffffffffffff1673ffffffffffffffffffffffffffffffffffffffff16815260200190815260200160002054141561077f576000339080600181540180825580915050600190039060005260206000200160009091909190916101000a81548173ffffffffffffffffffffffffffffffffffffffff021916908373ffffffffffffffffffffffffffffffffffffffff1602179055505b60018060008282546107919190610d49565b925050819055506001600260003373ffffffffffffffffffffffffffffffffffffffff1673ffffffffffffffffffffffffffffffffffffffff16815260200190815260200160002060008282546107e89190610d49565b92505081905550423373ffffffffffffffffffffffffffffffffffffffff167fe43d21b6fb14bf19449d6246850d6a65ab707e8d400378ec16ac62d1cf82e3f68686604051610838929190610c90565b60405180910390a350505050565b6060600080600360008673ffffffffffffffffffffffffffffffffffffffff1673ffffffffffffffffffffffffffffffffffffffff1681526020019081526020016000206000858152602001908152602001600020600001600360008773ffffffffffffffffffffffffffffffffffffffff1673ffffffffffffffffffffffffffffffffffffffff168152602001908152602001600020600086815260200190815260200160002060010154600360008873ffffffffffffffffffffffffffffffffffffffff1673ffffffffffffffffffffffffffffffffffffffff168152602001908152602001600020600087815260200190815260200160002060020160009054906101000a900473ffffffffffffffffffffffffffffffffffffffff1682805461097290610e51565b80601f016020809104026020016040519081016040528092919081815260200182805461099e90610e51565b80156109eb5780601f106109c0576101008083540402835291602001916109eb565b820191906000526020600020905b8154815290600101906020018083116109ce57829003601f168201915b505050505092509250925092509250925092565b828054610a0b90610e51565b90600052602060002090601f016020900481019282610a2d5760008555610a74565b82601f10610a4657805160ff1916838001178555610a74565b82800160010185558215610a74579182015b82811115610a73578251825591602001919060010190610a58565b5b509050610a819190610a85565b5090565b5b80821115610a9e576000816000905550600101610a86565b5090565b600081359050610ab181610f1b565b92915050565b60008083601f840112610ac957600080fd5b8235905067ffffffffffffffff811115610ae257600080fd5b602083019150836001820283011115610afa57600080fd5b9250929050565b600081359050610b1081610f32565b92915050565b600060208284031215610b2857600080fd5b6000610b3684828501610aa2565b91505092915050565b60008060408385031215610b5257600080fd5b6000610b6085828601610aa2565b9250506020610b7185828601610b01565b9150509250929050565b60008060208385031215610b8e57600080fd5b600083013567ffffffffffffffff811115610ba857600080fd5b610bb485828601610ab7565b92509250509250929050565b600060208284031215610bd257600080fd5b6000610be084828501610b01565b91505092915050565b610bf281610dd3565b82525050565b6000610c048385610d38565b9350610c11838584610e0f565b610c1a83610ee1565b840190509392505050565b6000610c3082610d2d565b610c3a8185610d38565b9350610c4a818560208601610e1e565b610c5381610ee1565b840191505092915050565b6000610c6b600c83610d38565b9150610c7682610ef2565b602082019050919050565b610c8a81610e05565b82525050565b60006020820190508181036000830152610cab818486610bf8565b90509392505050565b60006060820190508181036000830152610cce8186610c25565b9050610cdd6020830185610c81565b610cea6040830184610be9565b949350505050565b60006020820190508181036000830152610d0b81610c5e565b9050919050565b6000602082019050610d276000830184610c81565b92915050565b600081519050919050565b600082825260208201905092915050565b6000610d5482610e05565b9150610d5f83610e05565b9250827fffffffffffffffffffffffffffffffffffffffffffffffffffffffffffffffff03821115610d9457610d93610e83565b5b828201905092915050565b6000610daa82610e05565b9150610db583610e05565b925082821015610dc857610dc7610e83565b5b828203905092915050565b6000610dde82610de5565b9050919050565b600073ffffffffffffffffffffffffffffffffffffffff82169050919050565b6000819050919050565b82818337600083830152505050565b60005b83811015610e3c578082015181840152602081019050610e21565b83811115610e4b576000848401525b50505050565b60006002820490506001821680610e6957607f821691505b60208210811415610e7d57610e7c610eb2565b5b50919050565b7f4e487b7100000000000000000000000000000000000000000000000000000000600052601160045260246000fd5b7f4e487b7100000000000000000000000000000000000000000000000000000000600052602260045260246000fd5b6000601f19601f8301169050919050565b7f506c656173652077616974210000000000000000000000000000000000000000600082015250565b610f2481610dd3565b8114610f2f57600080fd5b50565b610f3b81610e05565b8114610f4657600080fd5b5056fea2646970667358221220893eafef5ef2f7021a8876f380741f131fb80fcfd7bf2577326cd904dfc8861e64736f6c63430008040033",
    "linkReferences": {},
    "deployedLinkReferences": {}
}