{
  "_format": "hh-sol-artifact-1",
  "contractName": "ProofOfTake",
  "sourceName": "contracts/ProofOfTake.sol",
  "abi": [
    {
      "inputs": [],
      "stateMutability": "payable",
      "type": "constructor"
    },
    {
      "anonymous": false,
      "inputs": [
        {
          "indexed": true,
          "internalType": "address",
          "name": "sender",
          "type": "address"
        },
        {
          "indexed": false,
          "internalType": "string",
          "name": "take",
          "type": "string"
        },
        {
          "indexed": true,
          "internalType": "uint256",
          "name": "timestamp",
          "type": "uint256"
        }
      ],
      "name": "CreateTake",
      "type": "event"
    },
    {
      "anonymous": false,
      "inputs": [
        {
          "indexed": true,
          "internalType": "address",
          "name": "winner",
          "type": "address"
        },
        {
          "indexed": true,
          "internalType": "uint256",
          "name": "timestamp",
          "type": "uint256"
        },
        {
          "indexed": false,
          "internalType": "uint256",
          "name": "amount",
          "type": "uint256"
        }
      ],
      "name": "WinPrize",
      "type": "event"
    },
    {
      "inputs": [
        {
          "internalType": "string",
          "name": "_take",
          "type": "string"
        }
      ],
      "name": "create",
      "outputs": [],
      "stateMutability": "nonpayable",
      "type": "function"
    },
    {
      "inputs": [],
      "name": "getLastTakeIndex",
      "outputs": [
        {
          "internalType": "uint256",
          "name": "",
          "type": "uint256"
        }
      ],
      "stateMutability": "view",
      "type": "function"
    },
    {
      "inputs": [
        {
          "internalType": "address",
          "name": "_addr",
          "type": "address"
        }
      ],
      "name": "getLastTakeIndexByAddr",
      "outputs": [
        {
          "internalType": "uint256",
          "name": "",
          "type": "uint256"
        }
      ],
      "stateMutability": "view",
      "type": "function"
    },
    {
      "inputs": [
        {
          "internalType": "uint256",
          "name": "_idx",
          "type": "uint256"
        }
      ],
      "name": "getTake",
      "outputs": [
        {
          "internalType": "string",
          "name": "",
          "type": "string"
        },
        {
          "internalType": "uint256",
          "name": "",
          "type": "uint256"
        },
        {
          "internalType": "address",
          "name": "",
          "type": "address"
        }
      ],
      "stateMutability": "view",
      "type": "function"
    },
    {
      "inputs": [
        {
          "internalType": "address",
          "name": "_addr",
          "type": "address"
        },
        {
          "internalType": "uint256",
          "name": "_idx",
          "type": "uint256"
        }
      ],
      "name": "getTakeByAddr",
      "outputs": [
        {
          "internalType": "string",
          "name": "",
          "type": "string"
        },
        {
          "internalType": "uint256",
          "name": "",
          "type": "uint256"
        },
        {
          "internalType": "address",
          "name": "",
          "type": "address"
        }
      ],
      "stateMutability": "view",
      "type": "function"
    },
    {
      "inputs": [],
      "name": "getTotalTakes",
      "outputs": [
        {
          "internalType": "uint256",
          "name": "",
          "type": "uint256"
        }
      ],
      "stateMutability": "view",
      "type": "function"
    },
    {
      "inputs": [
        {
          "internalType": "address",
          "name": "",
          "type": "address"
        }
      ],
      "name": "lastTake",
      "outputs": [
        {
          "internalType": "uint256",
          "name": "",
          "type": "uint256"
        }
      ],
      "stateMutability": "view",
      "type": "function"
    }
  ],
  "bytecode": "0x6080604052606444426200001491906200002c565b62000020919062000093565b60008190555062000129565b6000620000398262000089565b9150620000468362000089565b9250827fffffffffffffffffffffffffffffffffffffffffffffffffffffffffffffffff038211156200007e576200007d620000cb565b5b828201905092915050565b6000819050919050565b6000620000a08262000089565b9150620000ad8362000089565b925082620000c057620000bf620000fa565b5b828206905092915050565b7f4e487b7100000000000000000000000000000000000000000000000000000000600052601160045260246000fd5b7f4e487b7100000000000000000000000000000000000000000000000000000000600052601260045260246000fd5b61126980620001396000396000f3fe608060405234801561001057600080fd5b506004361061007d5760003560e01c80636b00f5451161005b5780636b00f545146101025780637b17c60f14610132578063b6a46b3b14610150578063f035f8761461016c5761007d565b80633391abc3146100825780634cf8a6d5146100b457806366002958146100d2575b600080fd5b61009c60048036038101906100979190610ce0565b61019e565b6040516100ab93929190610e52565b60405180910390f35b6100bc610357565b6040516100c99190610ef0565b60405180910390f35b6100ec60048036038101906100e79190610c36565b610361565b6040516100f99190610ef0565b60405180910390f35b61011c60048036038101906101179190610c36565b6103b6565b6040516101299190610ef0565b60405180910390f35b61013a6103ce565b6040516101479190610ef0565b60405180910390f35b61016a60048036038101906101659190610c9b565b610421565b005b61018660048036038101906101819190610c5f565b610966565b60405161019593929190610e52565b60405180910390f35b6060600080600460003373ffffffffffffffffffffffffffffffffffffffff1673ffffffffffffffffffffffffffffffffffffffff1681526020019081526020016000206000858152602001908152602001600020600001600460003373ffffffffffffffffffffffffffffffffffffffff1673ffffffffffffffffffffffffffffffffffffffff168152602001908152602001600020600086815260200190815260200160002060010154600460003373ffffffffffffffffffffffffffffffffffffffff1673ffffffffffffffffffffffffffffffffffffffff168152602001908152602001600020600087815260200190815260200160002060020160009054906101000a900473ffffffffffffffffffffffffffffffffffffffff168280546102ca9061103a565b80601f01602080910402602001604051908101604052809291908181526020018280546102f69061103a565b80156103435780601f1061031857610100808354040283529160200191610343565b820191906000526020600020905b81548152906001019060200180831161032657829003601f168201915b505050505092509250925092509193909250565b6000600254905090565b60006001600360008473ffffffffffffffffffffffffffffffffffffffff1673ffffffffffffffffffffffffffffffffffffffff168152602001908152602001600020546103af9190610f88565b9050919050565b60056020528060005260406000206000915090505481565b60006001600360003373ffffffffffffffffffffffffffffffffffffffff1673ffffffffffffffffffffffffffffffffffffffff1681526020019081526020016000205461041c9190610f88565b905090565b42601e600560003373ffffffffffffffffffffffffffffffffffffffff1673ffffffffffffffffffffffffffffffffffffffff1681526020019081526020016000205461046e9190610f32565b106104ae576040517f08c379a00000000000000000000000000000000000000000000000000000000081526004016104a590610e90565b60405180910390fd5b42600560003373ffffffffffffffffffffffffffffffffffffffff1673ffffffffffffffffffffffffffffffffffffffff16815260200190815260200160002081905550600082828080601f016020809104026020016040519081016040528093929190818152602001838380828437600081840152601f19601f8201169050808301925050505050505090506000600360003373ffffffffffffffffffffffffffffffffffffffff1673ffffffffffffffffffffffffffffffffffffffff16815260200190815260200160002054905060405180606001604052808381526020014281526020013373ffffffffffffffffffffffffffffffffffffffff16815250600460003373ffffffffffffffffffffffffffffffffffffffff1673ffffffffffffffffffffffffffffffffffffffff1681526020019081526020016000206000838152602001908152602001600020600082015181600001908051906020019061061c929190610b1f565b506020820151816001015560408201518160020160006101000a81548173ffffffffffffffffffffffffffffffffffffffff021916908373ffffffffffffffffffffffffffffffffffffffff1602179055509050506000600360003373ffffffffffffffffffffffffffffffffffffffff1673ffffffffffffffffffffffffffffffffffffffff16815260200190815260200160002054141561071d576001339080600181540180825580915050600190039060005260206000200160009091909190916101000a81548173ffffffffffffffffffffffffffffffffffffffff021916908373ffffffffffffffffffffffffffffffffffffffff1602179055505b6001600260008282546107309190610f32565b925050819055506001600360003373ffffffffffffffffffffffffffffffffffffffff1673ffffffffffffffffffffffffffffffffffffffff16815260200190815260200160002060008282546107879190610f32565b92505081905550423373ffffffffffffffffffffffffffffffffffffffff167fe43d21b6fb14bf19449d6246850d6a65ab707e8d400378ec16ac62d1cf82e3f686866040516107d7929190610e2e565b60405180910390a3606460005442446107f09190610f32565b6107fa9190610f32565b610804919061106c565b6000819055506032600054116109605760006509184e72a000905047811115610862576040517f08c379a000000000000000000000000000000000000000000000000000000000815260040161085990610eb0565b60405180910390fd5b60003373ffffffffffffffffffffffffffffffffffffffff168260405161088890610e19565b60006040518083038185875af1925050503d80600081146108c5576040519150601f19603f3d011682016040523d82523d6000602084013e6108ca565b606091505b505090508061090e576040517f08c379a000000000000000000000000000000000000000000000000000000000815260040161090590610ed0565b60405180910390fd5b423373ffffffffffffffffffffffffffffffffffffffff167fbf56c4d3d8fe011f6ce70a2f6fdc9e7a45b47eaa4412e89014a4eab85b3239c9846040516109559190610ef0565b60405180910390a350505b50505050565b6060600080600460008673ffffffffffffffffffffffffffffffffffffffff1673ffffffffffffffffffffffffffffffffffffffff1681526020019081526020016000206000858152602001908152602001600020600001600460008773ffffffffffffffffffffffffffffffffffffffff1673ffffffffffffffffffffffffffffffffffffffff168152602001908152602001600020600086815260200190815260200160002060010154600460008873ffffffffffffffffffffffffffffffffffffffff1673ffffffffffffffffffffffffffffffffffffffff168152602001908152602001600020600087815260200190815260200160002060020160009054906101000a900473ffffffffffffffffffffffffffffffffffffffff16828054610a929061103a565b80601f0160208091040260200160405190810160405280929190818152602001828054610abe9061103a565b8015610b0b5780601f10610ae057610100808354040283529160200191610b0b565b820191906000526020600020905b815481529060010190602001808311610aee57829003601f168201915b505050505092509250925092509250925092565b828054610b2b9061103a565b90600052602060002090601f016020900481019282610b4d5760008555610b94565b82601f10610b6657805160ff1916838001178555610b94565b82800160010185558215610b94579182015b82811115610b93578251825591602001919060010190610b78565b5b509050610ba19190610ba5565b5090565b5b80821115610bbe576000816000905550600101610ba6565b5090565b600081359050610bd181611205565b92915050565b60008083601f840112610be957600080fd5b8235905067ffffffffffffffff811115610c0257600080fd5b602083019150836001820283011115610c1a57600080fd5b9250929050565b600081359050610c308161121c565b92915050565b600060208284031215610c4857600080fd5b6000610c5684828501610bc2565b91505092915050565b60008060408385031215610c7257600080fd5b6000610c8085828601610bc2565b9250506020610c9185828601610c21565b9150509250929050565b60008060208385031215610cae57600080fd5b600083013567ffffffffffffffff811115610cc857600080fd5b610cd485828601610bd7565b92509250509250929050565b600060208284031215610cf257600080fd5b6000610d0084828501610c21565b91505092915050565b610d1281610fbc565b82525050565b6000610d248385610f21565b9350610d31838584610ff8565b610d3a8361112a565b840190509392505050565b6000610d5082610f0b565b610d5a8185610f21565b9350610d6a818560208601611007565b610d738161112a565b840191505092915050565b6000610d8b600c83610f21565b9150610d968261113b565b602082019050919050565b6000610dae602e83610f21565b9150610db982611164565b604082019050919050565b6000610dd1600083610f16565b9150610ddc826111b3565b600082019050919050565b6000610df4602483610f21565b9150610dff826111b6565b604082019050919050565b610e1381610fee565b82525050565b6000610e2482610dc4565b9150819050919050565b60006020820190508181036000830152610e49818486610d18565b90509392505050565b60006060820190508181036000830152610e6c8186610d45565b9050610e7b6020830185610e0a565b610e886040830184610d09565b949350505050565b60006020820190508181036000830152610ea981610d7e565b9050919050565b60006020820190508181036000830152610ec981610da1565b9050919050565b60006020820190508181036000830152610ee981610de7565b9050919050565b6000602082019050610f056000830184610e0a565b92915050565b600081519050919050565b600081905092915050565b600082825260208201905092915050565b6000610f3d82610fee565b9150610f4883610fee565b9250827fffffffffffffffffffffffffffffffffffffffffffffffffffffffffffffffff03821115610f7d57610f7c61109d565b5b828201905092915050565b6000610f9382610fee565b9150610f9e83610fee565b925082821015610fb157610fb061109d565b5b828203905092915050565b6000610fc782610fce565b9050919050565b600073ffffffffffffffffffffffffffffffffffffffff82169050919050565b6000819050919050565b82818337600083830152505050565b60005b8381101561102557808201518184015260208101905061100a565b83811115611034576000848401525b50505050565b6000600282049050600182168061105257607f821691505b60208210811415611066576110656110fb565b5b50919050565b600061107782610fee565b915061108283610fee565b925082611092576110916110cc565b5b828206905092915050565b7f4e487b7100000000000000000000000000000000000000000000000000000000600052601160045260246000fd5b7f4e487b7100000000000000000000000000000000000000000000000000000000600052601260045260246000fd5b7f4e487b7100000000000000000000000000000000000000000000000000000000600052602260045260246000fd5b6000601f19601f8301169050919050565b7f506c656173652077616974210000000000000000000000000000000000000000600082015250565b7f547279696e6720746f207769746864726177206d6f7265207468616e2074686960008201527f7320636f6e747261637420686173000000000000000000000000000000000000602082015250565b50565b7f4661696c656420746f207769746864726177206574682066726f6d20636f6e7460008201527f7261637400000000000000000000000000000000000000000000000000000000602082015250565b61120e81610fbc565b811461121957600080fd5b50565b61122581610fee565b811461123057600080fd5b5056fea264697066735822122061e199c2ced74b22836170d5a90ab55a4311db5998b6f0952ada13c3c8c5beec64736f6c63430008040033",
  "linkReferences": {},
  "deployedLinkReferences": {}
}